:1000000005308A008C2D0000202BD5275410CC20E1
:100010004E104E244128201000005424CF24A02349
:10002000C9204E1D2010200073002010D32049103D
:10003000CD2054104B24C12A201000012010CD27C0
:1000400049104E2441282026C124201000002010F1
:10005000C4274910CD2054104B24C12A2010000180
:100060002022CF24202AC8204E24A0214F27471029
:1000700000012010C4274910CD2054104B24C12A60
:10008000201000012010C42749105424412A2021A7
:10009000C12420100001201020102010201020105A
:1000A00020102010201020100001201020102010FF
:1000B00020102010201020102010201000002010F0
:1000C000C4274910CD2054104B24C12A2010000110
:1000D000CC204E10311D2010201020102010201098
:1000E0000001CC204E10321D2010201020102010B6
:1000F00020100001CC204E10321D00002027C82007
:100100005010CD2054104B24C12A20100001202271
:1001100055274710CD2054104B24C12A2010000130
:10012000C32A4110CD27A016A026CF24202BC127FB
:1001300000012027C8205010CD2054104B24C12A84
:100140002010000062308400831300080319B528D2
:100150000630F800F701F70BAB28F80BAA287B3024
:10016000F700F70BB128800BA8280800A010200882
:1001700083168700831287102010200883168700BB
:10018000831207100530E200A22083168801831233
:100190005E0888002011200883168700831207114B
:1001A0002011200883168700831207150130E20012
:1001B000A22008000530E200A2203830DE00B62080
:1001C0000530E200A2200C30DE00B6200630DE0052
:1001D000B6200130DE00B6200230E200A2208A11F3
:1001E0000A12E32DA01020088316870083128710BF
:1001F0002010200883168700831207140530E200C0
:10020000A22083168801831261088800201120082B
:100210008316870083120711201120088316870098
:10022000831207150130E200A22008000B08DE004F
:100230008B13831603178C170C1400000000831215
:100240000313DE1B8B1703170C087F3903196A2968
:100250000313DE0003170D080313DF0003170F0855
:100260000313E0005E08E100F2205F0803178D0031
:100270000313600803178F0003130B08E1008B13AF
:10028000831603178C170C1400000000831203134D
:10029000E11B8B1703170C0D0E0D7F3903196A290B
:1002A0000313DE0003170D080313DF0003170F0805
:1002B0000313E0005E08E100F2205F0803178D00E1
:1002C0000313600803178F008D0A03198F0A0313A5
:1002D0001629031703130800DE015E08323C031CD5
:1002E000812983160510831205140230E200A22032
:1002F00083160510831205101230E200A220DE0AD8
:100300006D2908005F08F8015E0203188A295E085B
:10031000F7009629F7010830E000DE0DF70D5F08C1
:1003200077020318F700F80DE00B8D2908008316FB
:100330000610831206108316861083128614831605
:1003400006118312061583168611831286158316ED
:1003500006168312061ABC291430E200A220831666
:1003600006168312061ABC29831606168312061E69
:10037000B4290130F800D52A831686168312861A0E
:10038000D1291430E200A220831686168312861A21
:10039000D129831686168312861EC9290230F800D9
:1003A000D52A831606178312061BE6291430E200AD
:1003B000A220831606178312061BE629831606174A
:1003C0008312061FDE290330F800D52A8316861013
:1003D00083128610831606108312061483160611E4
:1003E0008312061583168611831286158316061648
:1003F0008312061A0B2A1430E200A2208316061676
:100400008312061A0B2A831606168312061E032A67
:100410000430F800D52A831686168312861A202AFD
:100420001430E200A220831686168312861A202A30
:10043000831686168312861E182A0530F800D52AE0
:10044000831606178312061B352A1430E200A220F9
:10045000831606178312061B352A83160617831286
:10046000061F2D2A0630F800D52A8316061183129E
:100470000611831606108312061483168610831243
:100480008614831686118312861583160616831228
:10049000061A5A2A1430E200A22083160616831286
:1004A000061A5A2A831606168312061E522A073087
:1004B000F800D52A831686168312861A6F2A1430FE
:1004C000E200A220831686168312861A6F2A8316EC
:1004D00086168312861E672A0830F800D52A8316EE
:1004E00006178312061B842A1430E200A22083160A
:1004F00006178312061B842A831606178312061F0B
:100500007C2A0930F800D52A8316861183128611B9
:10051000831606108312061483168610831286141F
:100520008316061183120615831606168312061A01
:10053000A92A1430E200A220831606168312061A96
:10054000A92A831606168312061EA12A0A30F8006D
:10055000D52A831686168312861ABE2A1430E20024
:10056000A220831686168312861ABE2A8316861642
:100570008312861EB62A0030F800D52A8316061785
:100580008312061BD32A1430E200A220831606171A
:100590008312061BD32A831606178312061FCB2A43
:1005A0000B30F800D52A0C30F8007808A300230897
:1005B0000C3C03196F2D5A18112C5A19D42B2308EF
:1005C000093C031C342BD6015608083C031CFE2AA8
:1005D00024305607F800FA010318FA0A01305607CA
:1005E000243E840083130008E0007808840083130D
:1005F0007A18831760088000D60AE42A303023076F
:10060000AD00D6015608083C031C1C2B3830560799
:10061000F800FA010318FA0A01305607383E840040
:1006200083130008E0007808840083137A18831786
:1006300060088000D60A022B2A30C100C630DE00D6
:10064000B620D6015608093C031C332B3830560718
:10065000840083130008DE00E100F2201E30E20077
:10066000A220D60A222BD42B23080A3C031DD42B0C
:10067000D6015608093C031C512B24305607840030
:1006800083130008DE002E30560784008313000811
:100690005E0203194E2B5A11512B4F2B5A15D60AB5
:1006A000392B5A19BF2B8030DE00B62015300317C6
:1006B0008D0000308F0003131621C030DE00B620FD
:1006C0001E3003178D0000308F00031316210430F5
:1006D000DE00FA30E200A220DE0B692B0130DE00E2
:1006E000B620D80A5808023C0318BE2B0530D900A2
:1006F000D9080319B72B831685108312851480300F
:10070000DE00B620043003178D0000308F00031385
:100710001621C030DE00B6200D3003178D000030EA
:100720008F00031316215908DE000A30DF008221F2
:1007300030307807DE00E100F2205908DE000A3090
:10074000DF00822130307707DE00E100F220143034
:1007500003178D0000308F00031316210430DE00D4
:10076000FA30E200A220DE0BB02BD903782B8316DF
:100770008510831285100130DE00B620C12BD80110
:10078000A101D6015608093C031CD42B243056077E
:100790008400831320308000383056078400831390
:1007A00020308000D60AC22B23080B3C031D102CDE
:1007B0005A1D102CD6015608093C031CF92B243075
:1007C0005607840083132030800038305607840099
:1007D000831320308000423056078400831320307A
:1007E00080004C3056078400831320308000D60AE6
:1007F000DB2B5A140130D7008030DE00B6205F308A
:1008000003178D0000308F0003131621C030DE0067
:10081000B620683003178D0000308F0003131621B7
:100820006F2D5A1C6F2D570B5E2C2308093C031C9F
:100830004D2CD6015608083C031C342C4230560778
:10084000F800FA010318FA0A01305607423E840004
:1008500083130008E0007808840083137A18831754
:1008600060088000D60A1A2C30302307CB00C6302F
:10087000DE00B620D6015608093C031C4C2C423041
:100880005607840083130008DE00E100F2201E30CA
:10089000E200A220D60A3B2C5D2C23080A3C031D53
:1008A0005D2C0230D700C030DE00B6207130031757
:1008B0008D0000308F0003131621452D5708023C90
:1008C000031D452DC030DE00B6207A3003178D00A1
:1008D00000308F00031316212308093C031CA42CAD
:1008E000D6015608083C031C8B2C4C305607F800E8
:1008F000FA010318FA0A013056074C3E84008313AC
:100900000008E0007808840083137A1883176008D1
:100910008000D60A712C30302307D500C630DE00A7
:10092000B620D6015608093C031CA32C4C305607B0
:10093000840083130008DE00E100F2201E30E20094
:10094000A220D60A922C452D23080A3C031D452DD2
:100950000130D700D6015608093C031CC32C423095
:100960005607840083130008DE004C3056078400CD
:10097000831300085E020319C02CDA14C32CC12CA7
:10098000DA10D60AAB2CDA18002D8030DE00B62043
:10099000273003178D0000308F0003131621C0305D
:1009A000DE00B620303003178D0000308F000313B7
:1009B0001621D6015608093C031CFF2C423056076D
:1009C000840083130008DE000B08F7008B13560821
:1009D00003178D0003135E0803178C0083168C1316
:1009E0000C1555308D00AA308D008C148C18F62C07
:1009F0000C117708831203138B04D60ADA2C142DFA
:100A00008030DE00B620393003178D0000308F00B3
:100A100003131621C030DE00B620423003178D00CC
:100A200000308F00031316210430DE00FA30E2009C
:100A3000A220DE0B162D5A105A116C21D601560831
:100A4000093C031C312D42305607840083132030AB
:100A500080004C3056078400831320308000D60A73
:100A60001F2D8030DE00B6204B3003178D00003084
:100A70008F0003131621C030DE00B6205530031757
:100A80008D0000308F000313162123080B3C031D3B
:100A90006F2D5A105A11D701D6015608093C031C74
:100AA0006B2D4230560784008313203080004C3079
:100AB00056078400831320308000243056078400BA
:100AC0008313203080003830560784008313203091
:100AD0008000D60A4D2D0130DE00B6206C218A112F
:100AE0000A12202EDB01DB1B792D5B08093C031C5D
:100AF000892D83160510831205140130E200A2200F
:100B000083160510831205101330E200A220DB0AC1
:100B1000732D8A110A12562E03081F398300FF30E5
:100B2000A000DD01DC01831603170908C039890024
:100B300003131F129F1200300317880083128701CE
:100B400088018901831320300313A400A500A600A7
:100B5000A700A800A900AA00AB00AC00AD00AE0041
:100B6000AF00B000B100B200B300B400B500B600F1
:100B7000B700B800B900BA00BB00BC00BD00BE00A1
:100B8000BF00C000C100C200C300C400C500C60051
:100B9000C700C800C900CA00CB00CC00CD00CE0001
:100BA000CF00D000D100D200D300D400D500003057
:100BB00083168500880087008312A000F03083161A
:100BC00086008312DA288030DE00B6207E300317DC
:100BD0008D0000308F0003131621851083168510B9
:100BE00083125A10D701D8016C21A1015A11A20118
:100BF000A21BFE2D2208093C031C1F2E4230220797
:100C0000840083130008DE000B08F7008B13220812
:100C100003178D0003135E0803178C0083168C13D3
:100C20000C1555308D00AA308D008C148C18162EA2
:100C30000C117708831203138B04A20AF82D97294D
:100C4000D6015608093C031C352E2E305607840069
:100C50008313560803178D0083168C130C1483120C
:100C60000C0880000313D60A212E5A1D5E2E5A1836
:100C70004E2EA10A8030DE00B620873003178D008B
:100C800000308F0003131621C030DE00B6209030F4
:100C900003178D0000308F0003131621A11B542E63
:100CA00021081D3C031C572E5A1C722D5D2E5A1113
:100CB0005A106C210130DE00B620682E8030DE0034
:100CC000B620993003178D0000308F0003131621D2
:040CD0001F2E630070
:04400E00E22FFF3F5F
:00000001FF
;PIC16F887
;CRC=FA5A  CREATED="08-Dec-21 23:42"
